:020000040000FA
:040000002BEF00F0F2
:060008000D82AAEF02F0D8
:100018000D80E8CF01F0E0CF02F0F29CF2A017EFDC
:1000280000F019EF00F024EF00F08AA21EEF00F0B4
:1000380020EF00F022EF00F023EF00F08A50F2905A
:10004800F28C02C0E0FF01C0E8FF0D901000B6EF8F
:0200580002F0B4
:100200000057656C636F6D6520746F203A3A00008B
:10021000066E818E819C819C819E06C004F0D890E0
:100220000432D8900432D8900432010E0416835060
:100230000418FE0B0418836E06C004F0D890043234
:10024000D8900432010E0416044683500418FD0BA6
:100250000418836E06C004F0D8900432010E041610
:100260000446044683500418FB0B0418836E06C032
:1002700004F0010E04160446044604468350041894
:10028000F70B0418836E06C004F0043A0F0E041630
:10029000010E0416043A83500418EF0B0418836E01
:1002A00006C004F0050E056ED8900432052E54EFFA
:1002B00001F0010E04160446044604468250041858
:1002C000F70B0418826E06C004F0060E056ED89077
:1002D0000432052E67EF01F0010E0416043A825035
:1002E0000418EF0B0418826E046A06AE01D0042ACB
:1002F000010E0416043A044682500418DF0B041859
:10030000826E88EC02F088EC02F01200066E819C8E
:10031000819E06C004F0D8900432D8900432D89060
:100320000432010E041683500418FE0B0418836E69
:1003300006C004F0D8900432D8900432010E04169E
:10034000044683500418FD0B0418836E06C004F0A5
:10035000D8900432010E0416044604468350041853
:10036000FB0B0418836E06C004F0010E041604464D
:100370000446044683500418F70B0418836E06C025
:1003800004F0043A0F0E0416010E0416043A8350CA
:100390000418EF0B0418836E06C004F0050E056EFA
:1003A000D8900432052ED0EF01F0010E0416044659
:1003B0000446044682500418F70B0418826E06C0E7
:1003C00004F0060E056ED8900432052EE3EF01F01E
:1003D000010E0416043A82500418EF0B0418826EC2
:1003E000046A06AE01D0042A010E0416043A04463B
:1003F00082500418DF0B0418826E88EC02F01200A1
:10040000000E956E939E939C939A000E946E819E1F
:10041000819C819A340E076EF20EE82EFED7072ECD
:10042000FCD7300E86EC01F00D0E076EFC0EE82EA8
:10043000FED7072EFCD7300E86EC01F00D0E076EAE
:10044000FC0EE82EFED7072EFCD7300E86EC01F00E
:100450000D0E076EFC0EE82EFED7072EFCD73C0EC5
:1004600086EC01F0080E86EC01F0010E86EC01F03E
:10047000060E86EC01F088EC02F01200000E0C6E05
:10048000000E0B6E54EF02F00B500724096E0C5057
:1004900008200A6E09C0F6FF0AC0F7FF0800F550F1
:1004A00008EC01F00B4A0C2A0B500724096E0C5083
:1004B00008200A6E09C0F6FF0AC0F7FF0800F550D1
:1004C0000009D8A466EF02F068EF02F044EF02F0F2
:1004D00012009484958A93869482958C958E130E3F
:1004E000CB6E8F0EBD6E090EBE6E850EB76E040EFE
:1004F000CA6E9EA27EEF02F080EF02F079EF02F06A
:10050000B69E9494959A93969492959C959E12007B
:10051000819A030E036E980EE82EFED7032EFCD7A9
:10052000818A030E036E980EE82EFED7032EFCD7A9
:10053000819A1200760ED36E00EC02F0010E076E67
:10054000020E086E3EEC02F069EC02F0A6EF02F03B
:100550002BEF00F0F29EF2A2B0EF02F0B2EF02F049
:10056000B3EF02F0F292F28E0D9211000D900D9207
:0E057000000EF86E020EF76E00019AEF02F018
:020000040020DA
:08000000FFFFFFFFFFFFFFFF00
:020000040030CA
:0E000000FFC90D1EFF0185FF0FC00FE00F406E
:00000001FF
